{
  "contractName": "Crowdfunding",
  "abi": [
    {
      "inputs": [],
      "payable": false,
      "stateMutability": "nonpayable",
      "type": "constructor"
    },
    {
      "anonymous": false,
      "inputs": [
        {
          "indexed": false,
          "internalType": "uint256",
          "name": "id",
          "type": "uint256"
        },
        {
          "indexed": false,
          "internalType": "uint256",
          "name": "amountInvested",
          "type": "uint256"
        }
      ],
      "name": "amountInvested",
      "type": "event"
    },
    {
      "anonymous": false,
      "inputs": [
        {
          "indexed": false,
          "internalType": "uint256",
          "name": "id",
          "type": "uint256"
        },
        {
          "indexed": false,
          "internalType": "bool",
          "name": "completed",
          "type": "bool"
        }
      ],
      "name": "taskCompleted",
      "type": "event"
    },
    {
      "anonymous": false,
      "inputs": [
        {
          "indexed": false,
          "internalType": "uint256",
          "name": "id",
          "type": "uint256"
        },
        {
          "indexed": false,
          "internalType": "uint256",
          "name": "targetAmount",
          "type": "uint256"
        },
        {
          "indexed": false,
          "internalType": "string",
          "name": "content",
          "type": "string"
        },
        {
          "indexed": false,
          "internalType": "bool",
          "name": "comleted",
          "type": "bool"
        }
      ],
      "name": "taskCreated",
      "type": "event"
    },
    {
      "constant": true,
      "inputs": [],
      "name": "taskCount",
      "outputs": [
        {
          "internalType": "uint256",
          "name": "",
          "type": "uint256"
        }
      ],
      "payable": false,
      "stateMutability": "view",
      "type": "function"
    },
    {
      "constant": true,
      "inputs": [
        {
          "internalType": "uint256",
          "name": "",
          "type": "uint256"
        }
      ],
      "name": "tasks",
      "outputs": [
        {
          "internalType": "uint256",
          "name": "id",
          "type": "uint256"
        },
        {
          "internalType": "uint256",
          "name": "targetAmount",
          "type": "uint256"
        },
        {
          "internalType": "uint256",
          "name": "currentAmount",
          "type": "uint256"
        },
        {
          "internalType": "string",
          "name": "content",
          "type": "string"
        },
        {
          "internalType": "bool",
          "name": "completed",
          "type": "bool"
        }
      ],
      "payable": false,
      "stateMutability": "view",
      "type": "function"
    },
    {
      "constant": false,
      "inputs": [
        {
          "internalType": "string",
          "name": "_content",
          "type": "string"
        },
        {
          "internalType": "uint256",
          "name": "_targetAmount",
          "type": "uint256"
        }
      ],
      "name": "createTask",
      "outputs": [],
      "payable": false,
      "stateMutability": "nonpayable",
      "type": "function"
    },
    {
      "constant": false,
      "inputs": [
        {
          "internalType": "uint256",
          "name": "_id",
          "type": "uint256"
        },
        {
          "internalType": "uint256",
          "name": "_amountInvested",
          "type": "uint256"
        }
      ],
      "name": "investAmount",
      "outputs": [],
      "payable": false,
      "stateMutability": "nonpayable",
      "type": "function"
    },
    {
      "constant": false,
      "inputs": [
        {
          "internalType": "uint256",
          "name": "_id",
          "type": "uint256"
        }
      ],
      "name": "completeTask",
      "outputs": [],
      "payable": false,
      "stateMutability": "nonpayable",
      "type": "function"
    }
  ],
  "bytecode": "0x60806040526000805534801561001457600080fd5b5061005b6040518060400160405280600a81526020017f4669727374205461736b00000000000000000000000000000000000000000000815250600061006060201b60201c565b610274565b60008081548092919060010191905055506040518060a0016040528060005481526020018281526020016000815260200183815260200160001515815250600160008054815260200190815260200160002060008201518160000155602082015181600101556040820151816002015560608201518160030190805190602001906100ec9291906101cf565b5060808201518160040160006101000a81548160ff0219169083151502179055509050507f3fa5f41c2d3acf6b74d657482713e00cd5166c73b4ec721ba470ff42c5747ae060005482846000604051808581526020018481526020018060200183151515158152602001828103825284818151815260200191508051906020019080838360005b8381101561018e578082015181840152602081019050610173565b50505050905090810190601f1680156101bb5780820380516001836020036101000a031916815260200191505b509550505050505060405180910390a15050565b828054600181600116156101000203166002900490600052602060002090601f016020900481019282601f1061021057805160ff191683800117855561023e565b8280016001018555821561023e579182015b8281111561023d578251825591602001919060010190610222565b5b50905061024b919061024f565b5090565b61027191905b8082111561026d576000816000905550600101610255565b5090565b90565b6108f0806102836000396000f3fe608060405234801561001057600080fd5b50600436106100575760003560e01c806304fe2b341461005c57806347fe3022146101215780638d97767214610159578063b6cb58a514610220578063e1e295581461023e575b600080fd5b61011f6004803603604081101561007257600080fd5b810190808035906020019064010000000081111561008f57600080fd5b8201836020820111156100a157600080fd5b803590602001918460018302840111640100000000831117156100c357600080fd5b91908080601f016020809104026020016040519081016040528093929190818152602001838380828437600081840152601f19601f8201169050808301925050505050505091929192908035906020019092919050505061026c565b005b6101576004803603604081101561013757600080fd5b8101908080359060200190929190803590602001909291905050506103db565b005b6101856004803603602081101561016f57600080fd5b8101908080359060200190929190505050610532565b604051808681526020018581526020018481526020018060200183151515158152602001828103825284818151815260200191508051906020019080838360005b838110156101e15780820151818401526020810190506101c6565b50505050905090810190601f16801561020e5780820380516001836020036101000a031916815260200191505b50965050505050505060405180910390f35b61022861060d565b6040518082815260200191505060405180910390f35b61026a6004803603602081101561025457600080fd5b8101908080359060200190929190505050610613565b005b60008081548092919060010191905055506040518060a0016040528060005481526020018281526020016000815260200183815260200160001515815250600160008054815260200190815260200160002060008201518160000155602082015181600101556040820151816002015560608201518160030190805190602001906102f89291906107e5565b5060808201518160040160006101000a81548160ff0219169083151502179055509050507f3fa5f41c2d3acf6b74d657482713e00cd5166c73b4ec721ba470ff42c5747ae060005482846000604051808581526020018481526020018060200183151515158152602001828103825284818151815260200191508051906020019080838360005b8381101561039a57808201518184015260208101905061037f565b50505050905090810190601f1680156103c75780820380516001836020036101000a031916815260200191505b509550505050505060405180910390a15050565b6103e3610865565b600160008481526020019081526020016000206040518060a0016040529081600082015481526020016001820154815260200160028201548152602001600382018054600181600116156101000203166002900480601f0160208091040260200160405190810160405280929190818152602001828054600181600116156101000203166002900480156104b85780601f1061048d576101008083540402835291602001916104b8565b820191906000526020600020905b81548152906001019060200180831161049b57829003601f168201915b505050505081526020016004820160009054906101000a900460ff1615151515815250509050818160400151018160400181815250507f90e1ea56d7a8ffbd7c9460d24fee73688c6d18b91c8d3252bff77d484cadd7fd8383604051808381526020018281526020019250505060405180910390a1505050565b6001602052806000526040600020600091509050806000015490806001015490806002015490806003018054600181600116156101000203166002900480601f0160208091040260200160405190810160405280929190818152602001828054600181600116156101000203166002900480156105f05780601f106105c5576101008083540402835291602001916105f0565b820191906000526020600020905b8154815290600101906020018083116105d357829003601f168201915b5050505050908060040160009054906101000a900460ff16905085565b60005481565b61061b610865565b600160008381526020019081526020016000206040518060a0016040529081600082015481526020016001820154815260200160028201548152602001600382018054600181600116156101000203166002900480601f0160208091040260200160405190810160405280929190818152602001828054600181600116156101000203166002900480156106f05780601f106106c5576101008083540402835291602001916106f0565b820191906000526020600020905b8154815290600101906020018083116106d357829003601f168201915b505050505081526020016004820160009054906101000a900460ff1615151515815250509050806080015115816080019015159081151581525050806001600084815260200190815260200160002060008201518160000155602082015181600101556040820151816002015560608201518160030190805190602001906107799291906107e5565b5060808201518160040160006101000a81548160ff0219169083151502179055509050507ffc8c3643622669a0bb21133ffa1738f6d5c2df6b162da4fed93691abb53c465682600160405180838152602001821515151581526020019250505060405180910390a15050565b828054600181600116156101000203166002900490600052602060002090601f016020900481019282601f1061082657805160ff1916838001178555610854565b82800160010185558215610854579182015b82811115610853578251825591602001919060010190610838565b5b5090506108619190610896565b5090565b6040518060a00160405280600081526020016000815260200160008152602001606081526020016000151581525090565b6108b891905b808211156108b457600081600090555060010161089c565b5090565b9056fea265627a7a72315820b23e0406b1dfd528e5edafa7bd14e8f793c979c739319019db65eb5ea587b64d64736f6c63430005100032",
  "source": "pragma solidity >=0.4.21 <0.7.0;\n\ncontract Crowdfunding {\n    uint256 public taskCount = 0;\n\n    struct Task {\n        uint256 id;\n        uint256 targetAmount;\n        uint256 currentAmount;\n        string content;\n        bool completed;\n    }\n\n    mapping(uint256 => Task) public tasks;\n\n    constructor() public {\n        createTask(\"First Task\", 0);\n    }\n\n    event taskCreated(\n        uint256 id,\n        uint256 targetAmount,\n        string content,\n        bool comleted\n    );\n\n    event amountInvested(uint256 id, uint256 amountInvested);\n\n    event taskCompleted(uint256 id, bool completed);\n\n    function createTask(string memory _content, uint256 _targetAmount) public {\n        taskCount++;\n        tasks[taskCount] = Task(taskCount, _targetAmount, 0, _content, false);\n        emit taskCreated(taskCount, _targetAmount, _content, false);\n    }\n\n    function investAmount(uint256 _id, uint256 _amountInvested) public {\n        Task memory _task = tasks[_id];\n        _task.currentAmount = _task.currentAmount + _amountInvested;\n        emit amountInvested(_id, _amountInvested);\n    }\n\n    function completeTask(uint256 _id) public {\n        Task memory _task = tasks[_id];\n        _task.completed = !_task.completed;\n        tasks[_id] = _task;\n        emit taskCompleted(_id, true);\n    }\n}\n",
  "sourcePath": "/home/arch/Desktop/blockchainDev/eth-crowdfunding/contracts/Crowdfunding.sol",
  "compiler": {
    "name": "solc",
    "version": "0.5.16+commit.9c3226ce.Emscripten.clang"
  },
  "schemaVersion": "3.0.23",
  "updatedAt": "2020-03-08T11:28:34.412Z",
  "networkType": "ethereum",
  "devdoc": {
    "methods": {}
  },
  "userdoc": {
    "methods": {}
  }
}